{
  "contractName": "NFTCollection",
  "abi": [
    {
      "inputs": [],
      "stateMutability": "nonpayable",
      "type": "constructor"
    },
    {
      "anonymous": false,
      "inputs": [
        {
          "indexed": true,
          "internalType": "address",
          "name": "owner",
          "type": "address"
        },
        {
          "indexed": true,
          "internalType": "address",
          "name": "approved",
          "type": "address"
        },
        {
          "indexed": true,
          "internalType": "uint256",
          "name": "tokenId",
          "type": "uint256"
        }
      ],
      "name": "Approval",
      "type": "event"
    },
    {
      "anonymous": false,
      "inputs": [
        {
          "indexed": true,
          "internalType": "address",
          "name": "owner",
          "type": "address"
        },
        {
          "indexed": true,
          "internalType": "address",
          "name": "operator",
          "type": "address"
        },
        {
          "indexed": false,
          "internalType": "bool",
          "name": "approved",
          "type": "bool"
        }
      ],
      "name": "ApprovalForAll",
      "type": "event"
    },
    {
      "anonymous": false,
      "inputs": [
        {
          "indexed": true,
          "internalType": "address",
          "name": "from",
          "type": "address"
        },
        {
          "indexed": true,
          "internalType": "address",
          "name": "to",
          "type": "address"
        },
        {
          "indexed": true,
          "internalType": "uint256",
          "name": "tokenId",
          "type": "uint256"
        }
      ],
      "name": "Transfer",
      "type": "event"
    },
    {
      "inputs": [
        {
          "internalType": "uint256",
          "name": "",
          "type": "uint256"
        }
      ],
      "name": "_tokenIdToTokenURI",
      "outputs": [
        {
          "internalType": "string",
          "name": "",
          "type": "string"
        }
      ],
      "stateMutability": "view",
      "type": "function",
      "constant": true
    },
    {
      "inputs": [
        {
          "internalType": "string",
          "name": "",
          "type": "string"
        }
      ],
      "name": "_tokenURIExists",
      "outputs": [
        {
          "internalType": "bool",
          "name": "",
          "type": "bool"
        }
      ],
      "stateMutability": "view",
      "type": "function",
      "constant": true
    },
    {
      "inputs": [
        {
          "internalType": "address",
          "name": "to",
          "type": "address"
        },
        {
          "internalType": "uint256",
          "name": "tokenId",
          "type": "uint256"
        }
      ],
      "name": "approve",
      "outputs": [],
      "stateMutability": "nonpayable",
      "type": "function"
    },
    {
      "inputs": [
        {
          "internalType": "address",
          "name": "owner",
          "type": "address"
        }
      ],
      "name": "balanceOf",
      "outputs": [
        {
          "internalType": "uint256",
          "name": "",
          "type": "uint256"
        }
      ],
      "stateMutability": "view",
      "type": "function",
      "constant": true
    },
    {
      "inputs": [
        {
          "internalType": "uint256",
          "name": "",
          "type": "uint256"
        }
      ],
      "name": "cons",
      "outputs": [
        {
          "internalType": "string",
          "name": "URI",
          "type": "string"
        },
        {
          "internalType": "string",
          "name": "img",
          "type": "string"
        },
        {
          "internalType": "uint256",
          "name": "id",
          "type": "uint256"
        },
        {
          "internalType": "string",
          "name": "USD",
          "type": "string"
        },
        {
          "internalType": "bool",
          "name": "coldChain",
          "type": "bool"
        }
      ],
      "stateMutability": "view",
      "type": "function",
      "constant": true
    },
    {
      "inputs": [
        {
          "internalType": "uint256",
          "name": "tokenId",
          "type": "uint256"
        }
      ],
      "name": "getApproved",
      "outputs": [
        {
          "internalType": "address",
          "name": "",
          "type": "address"
        }
      ],
      "stateMutability": "view",
      "type": "function",
      "constant": true
    },
    {
      "inputs": [
        {
          "internalType": "address",
          "name": "owner",
          "type": "address"
        },
        {
          "internalType": "address",
          "name": "operator",
          "type": "address"
        }
      ],
      "name": "isApprovedForAll",
      "outputs": [
        {
          "internalType": "bool",
          "name": "",
          "type": "bool"
        }
      ],
      "stateMutability": "view",
      "type": "function",
      "constant": true
    },
    {
      "inputs": [],
      "name": "name",
      "outputs": [
        {
          "internalType": "string",
          "name": "",
          "type": "string"
        }
      ],
      "stateMutability": "view",
      "type": "function",
      "constant": true
    },
    {
      "inputs": [
        {
          "internalType": "uint256",
          "name": "tokenId",
          "type": "uint256"
        }
      ],
      "name": "ownerOf",
      "outputs": [
        {
          "internalType": "address",
          "name": "",
          "type": "address"
        }
      ],
      "stateMutability": "view",
      "type": "function",
      "constant": true
    },
    {
      "inputs": [
        {
          "internalType": "address",
          "name": "from",
          "type": "address"
        },
        {
          "internalType": "address",
          "name": "to",
          "type": "address"
        },
        {
          "internalType": "uint256",
          "name": "tokenId",
          "type": "uint256"
        }
      ],
      "name": "safeTransferFrom",
      "outputs": [],
      "stateMutability": "nonpayable",
      "type": "function"
    },
    {
      "inputs": [
        {
          "internalType": "address",
          "name": "from",
          "type": "address"
        },
        {
          "internalType": "address",
          "name": "to",
          "type": "address"
        },
        {
          "internalType": "uint256",
          "name": "tokenId",
          "type": "uint256"
        },
        {
          "internalType": "bytes",
          "name": "_data",
          "type": "bytes"
        }
      ],
      "name": "safeTransferFrom",
      "outputs": [],
      "stateMutability": "nonpayable",
      "type": "function"
    },
    {
      "inputs": [
        {
          "internalType": "address",
          "name": "operator",
          "type": "address"
        },
        {
          "internalType": "bool",
          "name": "approved",
          "type": "bool"
        }
      ],
      "name": "setApprovalForAll",
      "outputs": [],
      "stateMutability": "nonpayable",
      "type": "function"
    },
    {
      "inputs": [],
      "name": "symbol",
      "outputs": [
        {
          "internalType": "string",
          "name": "",
          "type": "string"
        }
      ],
      "stateMutability": "view",
      "type": "function",
      "constant": true
    },
    {
      "inputs": [
        {
          "internalType": "uint256",
          "name": "index",
          "type": "uint256"
        }
      ],
      "name": "tokenByIndex",
      "outputs": [
        {
          "internalType": "uint256",
          "name": "",
          "type": "uint256"
        }
      ],
      "stateMutability": "view",
      "type": "function",
      "constant": true
    },
    {
      "inputs": [
        {
          "internalType": "address",
          "name": "owner",
          "type": "address"
        },
        {
          "internalType": "uint256",
          "name": "index",
          "type": "uint256"
        }
      ],
      "name": "tokenOfOwnerByIndex",
      "outputs": [
        {
          "internalType": "uint256",
          "name": "",
          "type": "uint256"
        }
      ],
      "stateMutability": "view",
      "type": "function",
      "constant": true
    },
    {
      "inputs": [
        {
          "internalType": "uint256",
          "name": "",
          "type": "uint256"
        }
      ],
      "name": "tokenURIs",
      "outputs": [
        {
          "internalType": "string",
          "name": "",
          "type": "string"
        }
      ],
      "stateMutability": "view",
      "type": "function",
      "constant": true
    },
    {
      "inputs": [],
      "name": "totalSupply",
      "outputs": [
        {
          "internalType": "uint256",
          "name": "",
          "type": "uint256"
        }
      ],
      "stateMutability": "view",
      "type": "function",
      "constant": true
    },
    {
      "inputs": [
        {
          "internalType": "address",
          "name": "from",
          "type": "address"
        },
        {
          "internalType": "address",
          "name": "to",
          "type": "address"
        },
        {
          "internalType": "uint256",
          "name": "tokenId",
          "type": "uint256"
        }
      ],
      "name": "transferFrom",
      "outputs": [],
      "stateMutability": "nonpayable",
      "type": "function"
    },
    {
      "inputs": [
        {
          "internalType": "bytes4",
          "name": "interfaceId",
          "type": "bytes4"
        }
      ],
      "name": "supportsInterface",
      "outputs": [
        {
          "internalType": "bool",
          "name": "",
          "type": "bool"
        }
      ],
      "stateMutability": "view",
      "type": "function",
      "constant": true
    },
    {
      "inputs": [
        {
          "internalType": "uint256",
          "name": "tokenId",
          "type": "uint256"
        }
      ],
      "name": "tokenURI",
      "outputs": [
        {
          "internalType": "string",
          "name": "",
          "type": "string"
        }
      ],
      "stateMutability": "view",
      "type": "function",
      "constant": true
    },
    {
      "inputs": [
        {
          "internalType": "string",
          "name": "_tokenURI",
          "type": "string"
        },
        {
          "internalType": "string",
          "name": "_img",
          "type": "string"
        },
        {
          "internalType": "string",
          "name": "_useByDate",
          "type": "string"
        },
        {
          "internalType": "bool",
          "name": "coldChain",
          "type": "bool"
        }
      ],
      "name": "safeMint",
      "outputs": [],
      "stateMutability": "nonpayable",
      "type": "function"
    },
    {
      "inputs": [
        {
          "internalType": "uint256",
          "name": "id",
          "type": "uint256"
        },
        {
          "internalType": "bool",
          "name": "newColdChain",
          "type": "bool"
        }
      ],
      "name": "updateColdChain",
      "outputs": [],
      "stateMutability": "nonpayable",
      "type": "function"
    },
    {
      "inputs": [],
      "name": "getCons",
      "outputs": [
        {
          "components": [
            {
              "internalType": "string",
              "name": "URI",
              "type": "string"
            },
            {
              "internalType": "string",
              "name": "img",
              "type": "string"
            },
            {
              "internalType": "uint256",
              "name": "id",
              "type": "uint256"
            },
            {
              "internalType": "string",
              "name": "USD",
              "type": "string"
            },
            {
              "internalType": "bool",
              "name": "coldChain",
              "type": "bool"
            }
          ],
          "internalType": "struct NFTCollection.Con[]",
          "name": "",
          "type": "tuple[]"
        }
      ],
      "stateMutability": "view",
      "type": "function",
      "constant": true
    }
  ],
  "bytecode": "0x60806040523480156200001157600080fd5b506040518060400160405280600e81526020017f6d544320436f6c6c656374696f6e0000000000000000000000000000000000008152506040518060400160405280600381526020017f6d54430000000000000000000000000000000000000000000000000000000000815250816000908051906020019062000096929190620000b8565b508060019080519060200190620000af929190620000b8565b505050620001cc565b828054620000c69062000197565b90600052602060002090601f016020900481019282620000ea576000855562000136565b82601f106200010557805160ff191683800117855562000136565b8280016001018555821562000136579182015b828111156200013557825182559160200191906001019062000118565b5b50905062000145919062000149565b5090565b5b80821115620001645760008160009055506001016200014a565b5090565b7f4e487b7100000000000000000000000000000000000000000000000000000000600052602260045260246000fd5b60006002820490506001821680620001b057607f821691505b602082108103620001c657620001c562000168565b5b50919050565b613b8e80620001dc6000396000f3fe608060405234801561001057600080fd5b506004361061014d5760003560e01c80636352211e116100c3578063a22cb4651161007c578063a22cb46514610402578063b88d4fde1461041e578063c3b14b9c1461043a578063c87b56dd14610456578063e985e9c514610486578063f987129d146104b65761014d565b80636352211e146102f45780636c38a817146103245780636c8b703f1461035457806370a0823114610384578063786a9a4e146103b457806395d89b41146103e45761014d565b806318160ddd1161011557806318160ddd1461020a5780631a3bb7e11461022857806323b872dd1461025c5780632f745c591461027857806342842e0e146102a85780634f6ccce7146102c45761014d565b806301ffc9a71461015257806306fdde0314610182578063076c0588146101a0578063081812fc146101be578063095ea7b3146101ee575b600080fd5b61016c6004803603810190610167919061261d565b6104d2565b6040516101799190612665565b60405180910390f35b61018a6104e4565b6040516101979190612719565b60405180910390f35b6101a8610576565b6040516101b591906128f3565b60405180910390f35b6101d860048036038101906101d39190612941565b6107b0565b6040516101e591906129af565b60405180910390f35b610208600480360381019061020391906129f6565b610835565b005b61021261094c565b60405161021f9190612a45565b60405180910390f35b610242600480360381019061023d9190612941565b610959565b604051610253959493929190612a60565b60405180910390f35b61027660048036038101906102719190612ac8565b610b44565b005b610292600480360381019061028d91906129f6565b610ba4565b60405161029f9190612a45565b60405180910390f35b6102c260048036038101906102bd9190612ac8565b610c49565b005b6102de60048036038101906102d99190612941565b610c69565b6040516102eb9190612a45565b60405180910390f35b61030e60048036038101906103099190612941565b610cda565b60405161031b91906129af565b60405180910390f35b61033e60048036038101906103399190612941565b610d8b565b60405161034b9190612719565b60405180910390f35b61036e60048036038101906103699190612941565b610e2b565b60405161037b9190612719565b60405180910390f35b61039e60048036038101906103999190612b1b565b610ed7565b6040516103ab9190612a45565b60405180910390f35b6103ce60048036038101906103c99190612c7d565b610f8e565b6040516103db9190612665565b60405180910390f35b6103ec610fc4565b6040516103f99190612719565b60405180910390f35b61041c60048036038101906104179190612cf2565b611056565b005b61043860048036038101906104339190612dd3565b61106c565b005b610454600480360381019061044f9190612e56565b6110ce565b005b610470600480360381019061046b9190612941565b611161565b60405161047d9190612719565b60405180910390f35b6104a0600480360381019061049b9190612e96565b61124e565b6040516104ad9190612665565b60405180910390f35b6104d060048036038101906104cb9190612ed6565b6112e2565b005b60006104dd826114e1565b9050919050565b6060600080546104f390612fc0565b80601f016020809104026020016040519081016040528092919081815260200182805461051f90612fc0565b801561056c5780601f106105415761010080835404028352916020019161056c565b820191906000526020600020905b81548152906001019060200180831161054f57829003601f168201915b5050505050905090565b6060600d805480602002602001604051908101604052809291908181526020016000905b828210156107a757838290600052602060002090600502016040518060a00160405290816000820180546105cd90612fc0565b80601f01602080910402602001604051908101604052809291908181526020018280546105f990612fc0565b80156106465780601f1061061b57610100808354040283529160200191610646565b820191906000526020600020905b81548152906001019060200180831161062957829003601f168201915b5050505050815260200160018201805461065f90612fc0565b80601f016020809104026020016040519081016040528092919081815260200182805461068b90612fc0565b80156106d85780601f106106ad576101008083540402835291602001916106d8565b820191906000526020600020905b8154815290600101906020018083116106bb57829003601f168201915b50505050508152602001600282015481526020016003820180546106fb90612fc0565b80601f016020809104026020016040519081016040528092919081815260200182805461072790612fc0565b80156107745780601f1061074957610100808354040283529160200191610774565b820191906000526020600020905b81548152906001019060200180831161075757829003601f168201915b505050505081526020016004820160009054906101000a900460ff1615151515815250508152602001906001019061059a565b50505050905090565b60006107bb8261155b565b6107fa576040517f08c379a00000000000000000000000000000000000000000000000000000000081526004016107f190613063565b60405180910390fd5b6004600083815260200190815260200160002060009054906101000a900473ffffffffffffffffffffffffffffffffffffffff169050919050565b600061084082610cda565b90508073ffffffffffffffffffffffffffffffffffffffff168373ffffffffffffffffffffffffffffffffffffffff16036108b0576040517f08c379a00000000000000000000000000000000000000000000000000000000081526004016108a7906130f5565b60405180910390fd5b8073ffffffffffffffffffffffffffffffffffffffff166108cf6115c7565b73ffffffffffffffffffffffffffffffffffffffff1614806108fe57506108fd816108f86115c7565b61124e565b5b61093d576040517f08c379a000000000000000000000000000000000000000000000000000000000815260040161093490613187565b60405180910390fd5b61094783836115cf565b505050565b6000600880549050905090565b600d818154811061096957600080fd5b906000526020600020906005020160009150905080600001805461098c90612fc0565b80601f01602080910402602001604051908101604052809291908181526020018280546109b890612fc0565b8015610a055780601f106109da57610100808354040283529160200191610a05565b820191906000526020600020905b8154815290600101906020018083116109e857829003601f168201915b505050505090806001018054610a1a90612fc0565b80601f0160208091040260200160405190810160405280929190818152602001828054610a4690612fc0565b8015610a935780601f10610a6857610100808354040283529160200191610a93565b820191906000526020600020905b815481529060010190602001808311610a7657829003601f168201915b505050505090806002015490806003018054610aae90612fc0565b80601f0160208091040260200160405190810160405280929190818152602001828054610ada90612fc0565b8015610b275780601f10610afc57610100808354040283529160200191610b27565b820191906000526020600020905b815481529060010190602001808311610b0a57829003601f168201915b5050505050908060040160009054906101000a900460ff16905085565b610b55610b4f6115c7565b82611688565b610b94576040517f08c379a0000000000000000000000000000000000000000000000000000000008152600401610b8b90613219565b60405180910390fd5b610b9f838383611766565b505050565b6000610baf83610ed7565b8210610bf0576040517f08c379a0000000000000000000000000000000000000000000000000000000008152600401610be7906132ab565b60405180910390fd5b600660008473ffffffffffffffffffffffffffffffffffffffff1673ffffffffffffffffffffffffffffffffffffffff168152602001908152602001600020600083815260200190815260200160002054905092915050565b610c648383836040518060200160405280600081525061106c565b505050565b6000610c7361094c565b8210610cb4576040517f08c379a0000000000000000000000000000000000000000000000000000000008152600401610cab9061333d565b60405180910390fd5b60088281548110610cc857610cc761335d565b5b90600052602060002001549050919050565b6000806002600084815260200190815260200160002060009054906101000a900473ffffffffffffffffffffffffffffffffffffffff169050600073ffffffffffffffffffffffffffffffffffffffff168173ffffffffffffffffffffffffffffffffffffffff1603610d82576040517f08c379a0000000000000000000000000000000000000000000000000000000008152600401610d79906133fe565b60405180910390fd5b80915050919050565b600c6020528060005260406000206000915090508054610daa90612fc0565b80601f0160208091040260200160405190810160405280929190818152602001828054610dd690612fc0565b8015610e235780601f10610df857610100808354040283529160200191610e23565b820191906000526020600020905b815481529060010190602001808311610e0657829003601f168201915b505050505081565b600a8181548110610e3b57600080fd5b906000526020600020016000915090508054610e5690612fc0565b80601f0160208091040260200160405190810160405280929190818152602001828054610e8290612fc0565b8015610ecf5780601f10610ea457610100808354040283529160200191610ecf565b820191906000526020600020905b815481529060010190602001808311610eb257829003601f168201915b505050505081565b60008073ffffffffffffffffffffffffffffffffffffffff168273ffffffffffffffffffffffffffffffffffffffff1603610f47576040517f08c379a0000000000000000000000000000000000000000000000000000000008152600401610f3e90613490565b60405180910390fd5b600360008373ffffffffffffffffffffffffffffffffffffffff1673ffffffffffffffffffffffffffffffffffffffff168152602001908152602001600020549050919050565b600b818051602081018201805184825260208301602085012081835280955050505050506000915054906101000a900460ff1681565b606060018054610fd390612fc0565b80601f0160208091040260200160405190810160405280929190818152602001828054610fff90612fc0565b801561104c5780601f106110215761010080835404028352916020019161104c565b820191906000526020600020905b81548152906001019060200180831161102f57829003601f168201915b5050505050905090565b6110686110616115c7565b83836119cc565b5050565b61107d6110776115c7565b83611688565b6110bc576040517f08c379a00000000000000000000000000000000000000000000000000000000081526004016110b390613219565b60405180910390fd5b6110c884848484611b38565b50505050565b3373ffffffffffffffffffffffffffffffffffffffff166110ee83610cda565b73ffffffffffffffffffffffffffffffffffffffff161461110e57600080fd5b6000600d60018461111f91906134df565b815481106111305761112f61335d565b5b90600052602060002090600502019050818160040160006101000a81548160ff021916908315150217905550505050565b606061116c8261155b565b6111ab576040517f08c379a00000000000000000000000000000000000000000000000000000000081526004016111a290613585565b60405180910390fd5b600c600083815260200190815260200160002080546111c990612fc0565b80601f01602080910402602001604051908101604052809291908181526020018280546111f590612fc0565b80156112425780601f1061121757610100808354040283529160200191611242565b820191906000526020600020905b81548152906001019060200180831161122557829003601f168201915b50505050509050919050565b6000600560008473ffffffffffffffffffffffffffffffffffffffff1673ffffffffffffffffffffffffffffffffffffffff16815260200190815260200160002060008373ffffffffffffffffffffffffffffffffffffffff1673ffffffffffffffffffffffffffffffffffffffff16815260200190815260200160002060009054906101000a900460ff16905092915050565b600b846040516112f291906135e1565b908152602001604051809103902060009054906101000a900460ff161561134e576040517f08c379a000000000000000000000000000000000000000000000000000000000815260040161134590613644565b60405180910390fd5b600a8490806001815401808255809150506001900390600052602060002001600090919091909150908051906020019061138992919061250e565b506000600a80549050905084600c600083815260200190815260200160002090805190602001906113bb92919061250e565b506113c63382611b94565b6001600b866040516113d891906135e1565b908152602001604051809103902060006101000a81548160ff02191690831515021790555060006040518060a001604052808781526020018681526020018381526020018581526020018415158152509050600d819080600181540180825580915050600190039060005260206000209060050201600090919091909150600082015181600001908051906020019061147292919061250e565b50602082015181600101908051906020019061148f92919061250e565b506040820151816002015560608201518160030190805190602001906114b692919061250e565b5060808201518160040160006101000a81548160ff0219169083151502179055505050505050505050565b60007f780e9d63000000000000000000000000000000000000000000000000000000007bffffffffffffffffffffffffffffffffffffffffffffffffffffffff1916827bffffffffffffffffffffffffffffffffffffffffffffffffffffffff19161480611554575061155382611bb2565b5b9050919050565b60008073ffffffffffffffffffffffffffffffffffffffff166002600084815260200190815260200160002060009054906101000a900473ffffffffffffffffffffffffffffffffffffffff1673ffffffffffffffffffffffffffffffffffffffff1614159050919050565b600033905090565b816004600083815260200190815260200160002060006101000a81548173ffffffffffffffffffffffffffffffffffffffff021916908373ffffffffffffffffffffffffffffffffffffffff160217905550808273ffffffffffffffffffffffffffffffffffffffff1661164283610cda565b73ffffffffffffffffffffffffffffffffffffffff167f8c5be1e5ebec7d5bd14f71427d1e84f3dd0314c0f7b2291e5b200ac8c7c3b92560405160405180910390a45050565b60006116938261155b565b6116d2576040517f08c379a00000000000000000000000000000000000000000000000000000000081526004016116c9906136d6565b60405180910390fd5b60006116dd83610cda565b90508073ffffffffffffffffffffffffffffffffffffffff168473ffffffffffffffffffffffffffffffffffffffff16148061174c57508373ffffffffffffffffffffffffffffffffffffffff16611734846107b0565b73ffffffffffffffffffffffffffffffffffffffff16145b8061175d575061175c818561124e565b5b91505092915050565b8273ffffffffffffffffffffffffffffffffffffffff1661178682610cda565b73ffffffffffffffffffffffffffffffffffffffff16146117dc576040517f08c379a00000000000000000000000000000000000000000000000000000000081526004016117d390613768565b60405180910390fd5b600073ffffffffffffffffffffffffffffffffffffffff168273ffffffffffffffffffffffffffffffffffffffff160361184b576040517f08c379a0000000000000000000000000000000000000000000000000000000008152600401611842906137fa565b60405180910390fd5b611856838383611c94565b6118616000826115cf565b6001600360008573ffffffffffffffffffffffffffffffffffffffff1673ffffffffffffffffffffffffffffffffffffffff16815260200190815260200160002060008282546118b191906134df565b925050819055506001600360008473ffffffffffffffffffffffffffffffffffffffff1673ffffffffffffffffffffffffffffffffffffffff1681526020019081526020016000206000828254611908919061381a565b92505081905550816002600083815260200190815260200160002060006101000a81548173ffffffffffffffffffffffffffffffffffffffff021916908373ffffffffffffffffffffffffffffffffffffffff160217905550808273ffffffffffffffffffffffffffffffffffffffff168473ffffffffffffffffffffffffffffffffffffffff167fddf252ad1be2c89b69c2b068fc378daa952ba7f163c4a11628f55a4df523b3ef60405160405180910390a46119c7838383611ca4565b505050565b8173ffffffffffffffffffffffffffffffffffffffff168373ffffffffffffffffffffffffffffffffffffffff1603611a3a576040517f08c379a0000000000000000000000000000000000000000000000000000000008152600401611a31906138bc565b60405180910390fd5b80600560008573ffffffffffffffffffffffffffffffffffffffff1673ffffffffffffffffffffffffffffffffffffffff16815260200190815260200160002060008473ffffffffffffffffffffffffffffffffffffffff1673ffffffffffffffffffffffffffffffffffffffff16815260200190815260200160002060006101000a81548160ff0219169083151502179055508173ffffffffffffffffffffffffffffffffffffffff168373ffffffffffffffffffffffffffffffffffffffff167f17307eab39ab6107e8899845ad3d59bd9653f200f220920489ca2b5937696c3183604051611b2b9190612665565b60405180910390a3505050565b611b43848484611766565b611b4f84848484611ca9565b611b8e576040517f08c379a0000000000000000000000000000000000000000000000000000000008152600401611b859061394e565b60405180910390fd5b50505050565b611bae828260405180602001604052806000815250611e30565b5050565b60007f80ac58cd000000000000000000000000000000000000000000000000000000007bffffffffffffffffffffffffffffffffffffffffffffffffffffffff1916827bffffffffffffffffffffffffffffffffffffffffffffffffffffffff19161480611c7d57507f5b5e139f000000000000000000000000000000000000000000000000000000007bffffffffffffffffffffffffffffffffffffffffffffffffffffffff1916827bffffffffffffffffffffffffffffffffffffffffffffffffffffffff1916145b80611c8d5750611c8c82611e8b565b5b9050919050565b611c9f838383611ef5565b505050565b505050565b6000611cca8473ffffffffffffffffffffffffffffffffffffffff16612007565b15611e23578373ffffffffffffffffffffffffffffffffffffffff1663150b7a02611cf36115c7565b8786866040518563ffffffff1660e01b8152600401611d1594939291906139c3565b6020604051808303816000875af1925050508015611d5157506040513d601f19601f82011682018060405250810190611d4e9190613a24565b60015b611dd3573d8060008114611d81576040519150601f19603f3d011682016040523d82523d6000602084013e611d86565b606091505b506000815103611dcb576040517f08c379a0000000000000000000000000000000000000000000000000000000008152600401611dc29061394e565b60405180910390fd5b805181602001fd5b63150b7a0260e01b7bffffffffffffffffffffffffffffffffffffffffffffffffffffffff1916817bffffffffffffffffffffffffffffffffffffffffffffffffffffffff191614915050611e28565b600190505b949350505050565b611e3a838361202a565b611e476000848484611ca9565b611e86576040517f08c379a0000000000000000000000000000000000000000000000000000000008152600401611e7d9061394e565b60405180910390fd5b505050565b60007f01ffc9a7000000000000000000000000000000000000000000000000000000007bffffffffffffffffffffffffffffffffffffffffffffffffffffffff1916827bffffffffffffffffffffffffffffffffffffffffffffffffffffffff1916149050919050565b611f00838383612203565b600073ffffffffffffffffffffffffffffffffffffffff168373ffffffffffffffffffffffffffffffffffffffff1603611f4257611f3d81612208565b611f81565b8173ffffffffffffffffffffffffffffffffffffffff168373ffffffffffffffffffffffffffffffffffffffff1614611f8057611f7f8382612251565b5b5b600073ffffffffffffffffffffffffffffffffffffffff168273ffffffffffffffffffffffffffffffffffffffff1603611fc357611fbe816123be565b612002565b8273ffffffffffffffffffffffffffffffffffffffff168273ffffffffffffffffffffffffffffffffffffffff161461200157612000828261248f565b5b5b505050565b6000808273ffffffffffffffffffffffffffffffffffffffff163b119050919050565b600073ffffffffffffffffffffffffffffffffffffffff168273ffffffffffffffffffffffffffffffffffffffff1603612099576040517f08c379a000000000000000000000000000000000000000000000000000000000815260040161209090613a9d565b60405180910390fd5b6120a28161155b565b156120e2576040517f08c379a00000000000000000000000000000000000000000000000000000000081526004016120d990613b09565b60405180910390fd5b6120ee60008383611c94565b6001600360008473ffffffffffffffffffffffffffffffffffffffff1673ffffffffffffffffffffffffffffffffffffffff168152602001908152602001600020600082825461213e919061381a565b92505081905550816002600083815260200190815260200160002060006101000a81548173ffffffffffffffffffffffffffffffffffffffff021916908373ffffffffffffffffffffffffffffffffffffffff160217905550808273ffffffffffffffffffffffffffffffffffffffff16600073ffffffffffffffffffffffffffffffffffffffff167fddf252ad1be2c89b69c2b068fc378daa952ba7f163c4a11628f55a4df523b3ef60405160405180910390a46121ff60008383611ca4565b5050565b505050565b6008805490506009600083815260200190815260200160002081905550600881908060018154018082558091505060019003906000526020600020016000909190919091505550565b6000600161225e84610ed7565b61226891906134df565b905060006007600084815260200190815260200160002054905081811461234d576000600660008673ffffffffffffffffffffffffffffffffffffffff1673ffffffffffffffffffffffffffffffffffffffff168152602001908152602001600020600084815260200190815260200160002054905080600660008773ffffffffffffffffffffffffffffffffffffffff1673ffffffffffffffffffffffffffffffffffffffff168152602001908152602001600020600084815260200190815260200160002081905550816007600083815260200190815260200160002081905550505b6007600084815260200190815260200160002060009055600660008573ffffffffffffffffffffffffffffffffffffffff1673ffffffffffffffffffffffffffffffffffffffff16815260200190815260200160002060008381526020019081526020016000206000905550505050565b600060016008805490506123d291906134df565b90506000600960008481526020019081526020016000205490506000600883815481106124025761240161335d565b5b9060005260206000200154905080600883815481106124245761242361335d565b5b90600052602060002001819055508160096000838152602001908152602001600020819055506009600085815260200190815260200160002060009055600880548061247357612472613b29565b5b6001900381819060005260206000200160009055905550505050565b600061249a83610ed7565b905081600660008573ffffffffffffffffffffffffffffffffffffffff1673ffffffffffffffffffffffffffffffffffffffff168152602001908152602001600020600083815260200190815260200160002081905550806007600084815260200190815260200160002081905550505050565b82805461251a90612fc0565b90600052602060002090601f01602090048101928261253c5760008555612583565b82601f1061255557805160ff1916838001178555612583565b82800160010185558215612583579182015b82811115612582578251825591602001919060010190612567565b5b5090506125909190612594565b5090565b5b808211156125ad576000816000905550600101612595565b5090565b6000604051905090565b600080fd5b600080fd5b60007fffffffff0000000000000000000000000000000000000000000000000000000082169050919050565b6125fa816125c5565b811461260557600080fd5b50565b600081359050612617816125f1565b92915050565b600060208284031215612633576126326125bb565b5b600061264184828501612608565b91505092915050565b60008115159050919050565b61265f8161264a565b82525050565b600060208201905061267a6000830184612656565b92915050565b600081519050919050565b600082825260208201905092915050565b60005b838110156126ba57808201518184015260208101905061269f565b838111156126c9576000848401525b50505050565b6000601f19601f8301169050919050565b60006126eb82612680565b6126f5818561268b565b935061270581856020860161269c565b61270e816126cf565b840191505092915050565b6000602082019050818103600083015261273381846126e0565b905092915050565b600081519050919050565b600082825260208201905092915050565b6000819050602082019050919050565b600082825260208201905092915050565b600061278382612680565b61278d8185612767565b935061279d81856020860161269c565b6127a6816126cf565b840191505092915050565b6000819050919050565b6127c4816127b1565b82525050565b6127d38161264a565b82525050565b600060a08301600083015184820360008601526127f68282612778565b915050602083015184820360208601526128108282612778565b915050604083015161282560408601826127bb565b506060830151848203606086015261283d8282612778565b915050608083015161285260808601826127ca565b508091505092915050565b600061286983836127d9565b905092915050565b6000602082019050919050565b60006128898261273b565b6128938185612746565b9350836020820285016128a585612757565b8060005b858110156128e157848403895281516128c2858261285d565b94506128cd83612871565b925060208a019950506001810190506128a9565b50829750879550505050505092915050565b6000602082019050818103600083015261290d818461287e565b905092915050565b61291e816127b1565b811461292957600080fd5b50565b60008135905061293b81612915565b92915050565b600060208284031215612957576129566125bb565b5b60006129658482850161292c565b91505092915050565b600073ffffffffffffffffffffffffffffffffffffffff82169050919050565b60006129998261296e565b9050919050565b6129a98161298e565b82525050565b60006020820190506129c460008301846129a0565b92915050565b6129d38161298e565b81146129de57600080fd5b50565b6000813590506129f0816129ca565b92915050565b60008060408385031215612a0d57612a0c6125bb565b5b6000612a1b858286016129e1565b9250506020612a2c8582860161292c565b9150509250929050565b612a3f816127b1565b82525050565b6000602082019050612a5a6000830184612a36565b92915050565b600060a0820190508181036000830152612a7a81886126e0565b90508181036020830152612a8e81876126e0565b9050612a9d6040830186612a36565b8181036060830152612aaf81856126e0565b9050612abe6080830184612656565b9695505050505050565b600080600060608486031215612ae157612ae06125bb565b5b6000612aef868287016129e1565b9350506020612b00868287016129e1565b9250506040612b118682870161292c565b9150509250925092565b600060208284031215612b3157612b306125bb565b5b6000612b3f848285016129e1565b91505092915050565b600080fd5b600080fd5b7f4e487b7100000000000000000000000000000000000000000000000000000000600052604160045260246000fd5b612b8a826126cf565b810181811067ffffffffffffffff82111715612ba957612ba8612b52565b5b80604052505050565b6000612bbc6125b1565b9050612bc88282612b81565b919050565b600067ffffffffffffffff821115612be857612be7612b52565b5b612bf1826126cf565b9050602081019050919050565b82818337600083830152505050565b6000612c20612c1b84612bcd565b612bb2565b905082815260208101848484011115612c3c57612c3b612b4d565b5b612c47848285612bfe565b509392505050565b600082601f830112612c6457612c63612b48565b5b8135612c74848260208601612c0d565b91505092915050565b600060208284031215612c9357612c926125bb565b5b600082013567ffffffffffffffff811115612cb157612cb06125c0565b5b612cbd84828501612c4f565b91505092915050565b612ccf8161264a565b8114612cda57600080fd5b50565b600081359050612cec81612cc6565b92915050565b60008060408385031215612d0957612d086125bb565b5b6000612d17858286016129e1565b9250506020612d2885828601612cdd565b9150509250929050565b600067ffffffffffffffff821115612d4d57612d4c612b52565b5b612d56826126cf565b9050602081019050919050565b6000612d76612d7184612d32565b612bb2565b905082815260208101848484011115612d9257612d91612b4d565b5b612d9d848285612bfe565b509392505050565b600082601f830112612dba57612db9612b48565b5b8135612dca848260208601612d63565b91505092915050565b60008060008060808587031215612ded57612dec6125bb565b5b6000612dfb878288016129e1565b9450506020612e0c878288016129e1565b9350506040612e1d8782880161292c565b925050606085013567ffffffffffffffff811115612e3e57612e3d6125c0565b5b612e4a87828801612da5565b91505092959194509250565b60008060408385031215612e6d57612e6c6125bb565b5b6000612e7b8582860161292c565b9250506020612e8c85828601612cdd565b9150509250929050565b60008060408385031215612ead57612eac6125bb565b5b6000612ebb858286016129e1565b9250506020612ecc858286016129e1565b9150509250929050565b60008060008060808587031215612ef057612eef6125bb565b5b600085013567ffffffffffffffff811115612f0e57612f0d6125c0565b5b612f1a87828801612c4f565b945050602085013567ffffffffffffffff811115612f3b57612f3a6125c0565b5b612f4787828801612c4f565b935050604085013567ffffffffffffffff811115612f6857612f676125c0565b5b612f7487828801612c4f565b9250506060612f8587828801612cdd565b91505092959194509250565b7f4e487b7100000000000000000000000000000000000000000000000000000000600052602260045260246000fd5b60006002820490506001821680612fd857607f821691505b602082108103612feb57612fea612f91565b5b50919050565b7f4552433732313a20617070726f76656420717565727920666f72206e6f6e657860008201527f697374656e7420746f6b656e0000000000000000000000000000000000000000602082015250565b600061304d602c8361268b565b915061305882612ff1565b604082019050919050565b6000602082019050818103600083015261307c81613040565b9050919050565b7f4552433732313a20617070726f76616c20746f2063757272656e74206f776e6560008201527f7200000000000000000000000000000000000000000000000000000000000000602082015250565b60006130df60218361268b565b91506130ea82613083565b604082019050919050565b6000602082019050818103600083015261310e816130d2565b9050919050565b7f4552433732313a20617070726f76652063616c6c6572206973206e6f74206f7760008201527f6e6572206e6f7220617070726f76656420666f7220616c6c0000000000000000602082015250565b600061317160388361268b565b915061317c82613115565b604082019050919050565b600060208201905081810360008301526131a081613164565b9050919050565b7f4552433732313a207472616e736665722063616c6c6572206973206e6f74206f60008201527f776e6572206e6f7220617070726f766564000000000000000000000000000000602082015250565b600061320360318361268b565b915061320e826131a7565b604082019050919050565b60006020820190508181036000830152613232816131f6565b9050919050565b7f455243373231456e756d657261626c653a206f776e657220696e646578206f7560008201527f74206f6620626f756e6473000000000000000000000000000000000000000000602082015250565b6000613295602b8361268b565b91506132a082613239565b604082019050919050565b600060208201905081810360008301526132c481613288565b9050919050565b7f455243373231456e756d657261626c653a20676c6f62616c20696e646578206f60008201527f7574206f6620626f756e64730000000000000000000000000000000000000000602082015250565b6000613327602c8361268b565b9150613332826132cb565b604082019050919050565b600060208201905081810360008301526133568161331a565b9050919050565b7f4e487b7100000000000000000000000000000000000000000000000000000000600052603260045260246000fd5b7f4552433732313a206f776e657220717565727920666f72206e6f6e657869737460008201527f656e7420746f6b656e0000000000000000000000000000000000000000000000602082015250565b60006133e860298361268b565b91506133f38261338c565b604082019050919050565b60006020820190508181036000830152613417816133db565b9050919050565b7f4552433732313a2062616c616e636520717565727920666f7220746865207a6560008201527f726f206164647265737300000000000000000000000000000000000000000000602082015250565b600061347a602a8361268b565b91506134858261341e565b604082019050919050565b600060208201905081810360008301526134a98161346d565b9050919050565b7f4e487b7100000000000000000000000000000000000000000000000000000000600052601160045260246000fd5b60006134ea826127b1565b91506134f5836127b1565b925082821015613508576135076134b0565b5b828203905092915050565b7f4552433732314d657461646174613a2055524920717565727920666f72206e6f60008201527f6e6578697374656e7420746f6b656e0000000000000000000000000000000000602082015250565b600061356f602f8361268b565b915061357a82613513565b604082019050919050565b6000602082019050818103600083015261359e81613562565b9050919050565b600081905092915050565b60006135bb82612680565b6135c581856135a5565b93506135d581856020860161269c565b80840191505092915050565b60006135ed82846135b0565b915081905092915050565b7f54686520746f6b656e205552492073686f756c6420626520756e697175650000600082015250565b600061362e601e8361268b565b9150613639826135f8565b602082019050919050565b6000602082019050818103600083015261365d81613621565b9050919050565b7f4552433732313a206f70657261746f7220717565727920666f72206e6f6e657860008201527f697374656e7420746f6b656e0000000000000000000000000000000000000000602082015250565b60006136c0602c8361268b565b91506136cb82613664565b604082019050919050565b600060208201905081810360008301526136ef816136b3565b9050919050565b7f4552433732313a207472616e736665722066726f6d20696e636f72726563742060008201527f6f776e6572000000000000000000000000000000000000000000000000000000602082015250565b600061375260258361268b565b915061375d826136f6565b604082019050919050565b6000602082019050818103600083015261378181613745565b9050919050565b7f4552433732313a207472616e7366657220746f20746865207a65726f2061646460008201527f7265737300000000000000000000000000000000000000000000000000000000602082015250565b60006137e460248361268b565b91506137ef82613788565b604082019050919050565b60006020820190508181036000830152613813816137d7565b9050919050565b6000613825826127b1565b9150613830836127b1565b9250827fffffffffffffffffffffffffffffffffffffffffffffffffffffffffffffffff03821115613865576138646134b0565b5b828201905092915050565b7f4552433732313a20617070726f766520746f2063616c6c657200000000000000600082015250565b60006138a660198361268b565b91506138b182613870565b602082019050919050565b600060208201905081810360008301526138d581613899565b9050919050565b7f4552433732313a207472616e7366657220746f206e6f6e20455243373231526560008201527f63656976657220696d706c656d656e7465720000000000000000000000000000602082015250565b600061393860328361268b565b9150613943826138dc565b604082019050919050565b600060208201905081810360008301526139678161392b565b9050919050565b600081519050919050565b600082825260208201905092915050565b60006139958261396e565b61399f8185613979565b93506139af81856020860161269c565b6139b8816126cf565b840191505092915050565b60006080820190506139d860008301876129a0565b6139e560208301866129a0565b6139f26040830185612a36565b8181036060830152613a04818461398a565b905095945050505050565b600081519050613a1e816125f1565b92915050565b600060208284031215613a3a57613a396125bb565b5b6000613a4884828501613a0f565b91505092915050565b7f4552433732313a206d696e7420746f20746865207a65726f2061646472657373600082015250565b6000613a8760208361268b565b9150613a9282613a51565b602082019050919050565b60006020820190508181036000830152613ab681613a7a565b9050919050565b7f4552433732313a20746f6b656e20616c7265616479206d696e74656400000000600082015250565b6000613af3601c8361268b565b9150613afe82613abd565b602082019050919050565b60006020820190508181036000830152613b2281613ae6565b9050919050565b7f4e487b7100000000000000000000000000000000000000000000000000000000600052603160045260246000fdfea264697066735822122060095e18fd19ac843edbb5a112fe2ad5c5e63db5eba7d64886af488d8ef29f0764736f6c634300080d0033",
  "immutableReferences": {},
  "source": "// SPDX-License-Identifier: MIT\r\npragma solidity ^0.8.0;\r\n\r\nimport \"@openzeppelin/contracts/token/ERC721/ERC721.sol\";\r\nimport \"@openzeppelin/contracts/token/ERC721/extensions/ERC721Enumerable.sol\";\r\nimport \"@openzeppelin/contracts/token/ERC721/extensions/ERC721URIStorage.sol\";\r\n\r\ncontract NFTCollection is ERC721, ERC721Enumerable {\r\n  string[] public tokenURIs;\r\n  // mapping(string=>string) public tokenURIs;\r\n  mapping(string => bool) public _tokenURIExists;\r\n  mapping(uint => string) public _tokenIdToTokenURI;\r\n\r\n  // new features\r\n  // change safeMint, keep the status URI(database api) here \r\n  // mapping(uint => string) public _tokenURIToUSD;\r\n  // mapping(uint => bool) public _tokenURIToColdChain;\r\n\r\n    struct Con {\r\n    string URI;\r\n    string img;\r\n    uint256 id;\r\n    string USD;\r\n    bool coldChain;\r\n  }\r\n\r\n  Con[] public cons;\r\n\r\n  constructor() \r\n    ERC721(\"mTC Collection\", \"mTC\") \r\n  {\r\n  }\r\n\r\n  function _beforeTokenTransfer(address from, address to, uint256 tokenId) internal override(ERC721, ERC721Enumerable) {\r\n    super._beforeTokenTransfer(from, to, tokenId);\r\n  }\r\n\r\n  function supportsInterface(bytes4 interfaceId) public view override(ERC721, ERC721Enumerable) returns (bool) {\r\n    return super.supportsInterface(interfaceId);\r\n  }\r\n\r\n  function tokenURI(uint256 tokenId) public override view returns (string memory) {\r\n    require(_exists(tokenId), 'ERC721Metadata: URI query for nonexistent token');\r\n    return _tokenIdToTokenURI[tokenId];\r\n  }\r\n\r\n\r\n\r\n// _safeMint(address to, uint256 tokenId, bytes _data)\r\n// _safeTransfer(address from, address to, uint256 tokenId, bytes _data)\r\n  function safeMint(string memory _tokenURI,string memory _img,string memory _useByDate,bool coldChain) public {\r\n    require(!_tokenURIExists[_tokenURI], 'The token URI should be unique');\r\n    tokenURIs.push(_tokenURI);    \r\n    uint _id = tokenURIs.length;\r\n    _tokenIdToTokenURI[_id] = _tokenURI;\r\n    _safeMint(msg.sender, _id);\r\n    _tokenURIExists[_tokenURI] = true;\r\n\r\n    Con memory newCon =Con(_tokenURI,_img, _id, _useByDate, coldChain);\r\n    cons.push(newCon);\r\n\r\n  }\r\n\r\n  function updateColdChain(uint id,bool newColdChain) public{\r\n    require(ownerOf(id) == msg.sender);\r\n        Con storage con = cons[id-1];\r\n        con.coldChain=newColdChain;\r\n  }\r\n\r\n  // Getters\r\n  function getCons() public view returns (Con[] memory) {\r\n    return cons;\r\n  }\r\n}",
  "sourcePath": "/Users/lhs/Desktop/my_nft_market/nft-marketplace-1/src/contracts/NFTCollection.sol",
  "compiler": {
    "name": "solc",
    "version": "0.8.13+commit.abaa5c0e.Emscripten.clang"
  },
  "schemaVersion": "3.4.6",
  "updatedAt": "2022-04-01T13:13:40.501Z",
  "networkType": "ethereum",
  "devdoc": {
    "kind": "dev",
    "methods": {
      "approve(address,uint256)": {
        "details": "See {IERC721-approve}."
      },
      "balanceOf(address)": {
        "details": "See {IERC721-balanceOf}."
      },
      "getApproved(uint256)": {
        "details": "See {IERC721-getApproved}."
      },
      "isApprovedForAll(address,address)": {
        "details": "See {IERC721-isApprovedForAll}."
      },
      "name()": {
        "details": "See {IERC721Metadata-name}."
      },
      "ownerOf(uint256)": {
        "details": "See {IERC721-ownerOf}."
      },
      "safeTransferFrom(address,address,uint256)": {
        "details": "See {IERC721-safeTransferFrom}."
      },
      "safeTransferFrom(address,address,uint256,bytes)": {
        "details": "See {IERC721-safeTransferFrom}."
      },
      "setApprovalForAll(address,bool)": {
        "details": "See {IERC721-setApprovalForAll}."
      },
      "symbol()": {
        "details": "See {IERC721Metadata-symbol}."
      },
      "tokenByIndex(uint256)": {
        "details": "See {IERC721Enumerable-tokenByIndex}."
      },
      "tokenOfOwnerByIndex(address,uint256)": {
        "details": "See {IERC721Enumerable-tokenOfOwnerByIndex}."
      },
      "tokenURI(uint256)": {
        "details": "See {IERC721Metadata-tokenURI}."
      },
      "totalSupply()": {
        "details": "See {IERC721Enumerable-totalSupply}."
      },
      "transferFrom(address,address,uint256)": {
        "details": "See {IERC721-transferFrom}."
      }
    },
    "version": 1
  },
  "userdoc": {
    "kind": "user",
    "methods": {},
    "version": 1
  }
}